:020000040800F2
:10000000E0040020D9020008350300083503000889
:100010003503000835030008350300080000000020
:100020000000000000000000000000003503000890
:1000300035030008000000003503000849010008EE
:1000400035030008350300083503000835030008B0
:1000500035030008350300083503000835030008A0
:100060003503000835030008350300083503000890
:100070003503000835030008350300083503000880
:100080003503000835030008350300083503000870
:100090003503000835030008350300083503000860
:1000A0003503000835030008350300083503000850
:1000B0003503000835030008350300083503000840
:1000C0003503000835030008350300083503000830
:1000D0003503000835030008350300083503000820
:1000E0003503000835030008350300080000000050
:1000F0000000000000000000000000000000000000
:1001000000000000000000005FF808F180B483B038
:1001100000AF78600A4B1B680A4AA2FB03235A0D02
:100120007B6802FB03F37B6000BF7B685A1E7A602A
:10013000002BFAD10C37BD465DF8047B704700BF39
:10014000000000206BCA5F6B80B400AF044B1B68DB
:100150000133034A1360BD465DF8047B704700BF5E
:10016000AC00002080B500AF154A154B1B6843F06A
:10017000010313601249124B5A68124B13404B6033
:100180000F4A0F4B1B6823F0847323F480331360F2
:100190000B4A0B4B1B6823F480231360084A084B5F
:1001A0005B6823F4FE035360054B4FF41F029A6013
:1001B00000F00CF8044B4FF000629A6080BD00BF65
:1001C000001002400000FFF800ED00E080B500AF35
:1001D00000F002F880BD00BF80B483B000AF002300
:1001E0007B6000233B603A4A394B1B6843F4803301
:1001F0001360374B1B6803F400333B607B680133AB
:100200007B603B68002B03D17B68B3F5A06FF0D116
:100210002F4B1B6803F40033002B02D001233B60FB
:1002200001E000233B603B68012B4BD1294A294B5D
:100230001B6843F010031360264A264B1B6823F00B
:1002400003031360234A234B1B6843F0020313602C
:100250001F4A1F4B5B6853601D4A1D4B5B68536010
:100260001B4A1B4B5B6843F480635360184A184B6E
:100270005B6823F47C135360154A154B5B6843F4A9
:10028000E8135360124A124B1B6843F080731360EB
:1002900000BF0F4B1B6803F00073002BF9D00C4A12
:1002A0000B4B5B6823F003035360094A084B5B6800
:1002B00043F00203536000BF054B5B6803F00C037F
:1002C000082BF9D10C37BD465DF8047B704700BFA1
:1002D000001002400020024080B582B000AF104BF9
:1002E0007B60104B3B6007E03B681A1D3A607A6800
:1002F000111D796012681A603B680B4A9342F3D370
:100300000A480B494FF000028842B8BF40F8042B5E
:10031000FADBFFF727FF00F0EBF80837BD4680BD9A
:10032000FC210008000000203400002034000020E0
:10033000DC00002080B400AFFEE700BF80B489B0CD
:1003400000AF786039600023FB6100233B6100232C
:10035000BB610023FB6000237B610023BB603B6823
:10036000DB7803F00F03FB613B68DB7803F01003DD
:10037000002B05D03B689B781A46FB691343FB6151
:100380003B681B88DBB2002B44D07B681B687B6119
:100390000023BB6138E0BB69012202FA03F3FB6072
:1003A0003B681B881A46FB6813403B613A69FB684F
:1003B0009A4226D1BB699B00FB60FB680F2202FAC0
:1003C00003F3BB60BB68DB437A6913407B61FB6866
:1003D000FA6902FA03F37A6913437B613B68DB78BD
:1003E000282B05D1BB6901229A407B685A6108E03D
:1003F0003B68DB78482B04D1BB6901229A407B68BB
:100400001A61BB690133BB61BB69072BC3D97B6828
:100410007A691A603B681B88FF2B4AD97B685B6846
:100420007B610023BB613EE0BB6908331A460123B0
:100430009340FB603B681B881A46FB6813403B6196
:100440003A69FB689A422BD1BB699B00FB60FB6851
:100450000F2202FA03F3BB60BB68DB437A691340E7
:100460007B61FB68FA6902FA03F37A6913437B61E3
:100470003B68DB78282B07D1BB6908331A46012378
:1004800003FA02F27B685A613B68DB78482B07D19C
:10049000BB6908331A46012303FA02F27B681A612A
:1004A000BB690133BB61BB69072BBDD97B687A6926
:1004B0005A602437BD465DF8047B704780B485B030
:1004C00000AF78600B467B800023FB737B689A68E3
:1004D0007B881340002B02D00123FB7301E0002333
:1004E000FB73FB7B18461437BD465DF8047B7047F1
:1004F000B0B500AF00F066FA00F09AFC00F04EFDD7
:10050000544B1B68002B12D1534B1B68002B0ED190
:10051000524B1B68002B0AD1C820FFF7F7FDC820FB
:10052000FFF7F4FD00F040FD4A4B01221A604A4BF0
:100530001B68002B21D1494B1B68012B1DD1484B57
:100540001B68082B03DC474B00221A6002E0454B76
:1005500001221A60062000F0B9FC424B1B681846C5
:1005600000F0B8FD3D4B00221A603B4B01221A609F
:100570003B4B1B6801333A4A1360364B1B68012B17
:1005800023D139484021FFF799FF0346002B1CD1A6
:10059000364B1B68002B0ADC00F024FD0246344B6E
:1005A0001A60324B1B680133304A13600DE000F0D3
:1005B00019FD02462F4B1A60284B01221A60254B69
:1005C00000221A60294B00221A60234B1B68012B62
:1005D00040F0EE8124484021FFF770FF0346002BD6
:1005E00040F0E681244B1B6818464FF07E5101F025
:1005F00017FB03461A46204B1A601A4B1B68002B48
:1006000042D11D4B1B6818464FF07E5101F0A4FDEE
:100610000346002B08D0174B1B68184600F080FDDE
:100620000246164B1A6047E0124B1B68184600F052
:1006300077FD0246124B1A60124B1A68104B1B686A
:100640001046194601F0ECFA03461A460D4B1A60A3
:1006500032E000BF34000020380000203C000020C1
:100660004C000020B8000020000801405800002085
:1006700054000020500000205C0000206800002092
:1006800060000020700000209E4B1B68012B13D1DE
:100690009D4B1B68184600F043FD02469B4B1A60B9
:1006A000994B1B68184600F03BFD0246984B1A60B8
:1006B000984B1B68984A1360984B1B6818469849DA
:1006C00001F072FD0346002B00F072818D4B1B6818
:1006D000002B40F05F81934B1D68904B1C682046B7
:1006E0004FF07E5101F09AFA03461A468B4B1A607E
:1006F0002846214601F050FC03461A468A4B1A60F0
:10070000894B1B681846894901F046FC0346184688
:1007100001F054FD0246864B1A60854B1B68DBB224
:100720003033DAB2834B1A707F4B1C68804B1A68E7
:1007300013469B0013445B00184601F021FB03465F
:100740002046194601F06AFA03461A467A4B1A60A7
:10075000794B1B68184601F031FD0246774B1A6051
:10076000764B1B68DBB23033DAB2754B1A70724BC2
:100770001C68724B1B68184601F002FB03462046BA
:10078000194601F04BFA03461846684901F050FB40
:1007900003461A466B4B1A606A4B1B68184601F0F9
:1007A0000DFD0246684B1A60674B1B68DBB23033A5
:1007B000DAB2664B1A70634B1C68634B1B681846B1
:1007C00001F0DEFA03462046194601F027FA0346F7
:1007D0001846564901F02CFB03461A465C4B1A603A
:1007E0005B4B1B68184601F0E9FC0246594B1A6046
:1007F000584B1B68DBB23033DAB2574B1A70544B8C
:100800001C68544B1B68184601F0BAFA0346204690
:10081000194601F003FA03461846444901F008FB63
:1008200003461A464D4B1A604C4B1B68184601F0A4
:10083000C5FC02464A4B1A60494B1B68DBB2303399
:10084000DAB2484B1A70454B1C68454B1B6818467A
:1008500001F096FA03462046194601F0DFF90346F7
:100860001846324901F0E4FA03461A463E4B1A6034
:100870003D4B1B68184601F0A1FC02463B4B1A6039
:100880003A4B1B68DBB23033DAB2394B1A70394B52
:100890001B68DBB23033DAB2374B1A700A2000F033
:1008A000D7F80A2000F0D4F8334B1B78184600F034
:1008B000CFF8092000F0CCF81E4B1B78184600F04A
:1008C000C7F81F4B1B78184600F0C2F82E2000F026
:1008D000BFF81E4B1B78184600F0BAF81E4B1B7869
:1008E000184600F0B5F81F4B1B78184600F0B0F81A
:1008F0001F4B1B78184600F0ABF80A2000F0A8F850
:100900003CE000BFB8000020500000206C00002038
:100910006400002040000020740000205C000020E3
:100920000000A84170000020780000200000204155
:10093000D4000020C90000207C000020C40000205A
:10094000BD00002080000020D0000020D800002042
:1009500084000020CC000020BC0000208800002083
:10096000C0000020C80000208C000020B000002043
:10097000B40000204C000020CA0000200D4B0022D3
:100980001A600D4B4FF000021A600C4B4FF0000242
:100990001A600DE0074B00221A60074B4FF000026F
:1009A0001A60064B4FF000021A60054B00221A60D5
:1009B000A6E500BF380000205C0000207000002089
:1009C0004C00002080B586B000AF4FF4804001217C
:1009D00000F008F90420012100F004F901200121B0
:1009E00000F000F90423FB754FF48063BB820223FF
:1009F000BB7507F1140314481946FFF79FFC182331
:100A0000FB754FF40073BB8207F114030E481946BF
:100A1000FFF794FC4FF416537B6000233B810023C7
:100A20007B810023BB8100233B820C23FB813B1D88
:100A30000648194600F0F4F80448012100F0AAF92C
:100A40001837BD4680BD00BF000801400038014096
:100A500080B582B000AF0346FB7100BF074880211C
:100A600000F0CAF90346002BF8D0FB799BB203488B
:100A7000194600F0AFF90837BD4680BD0038014087
:100A800080B487B000AF786000237B6100233B61B6
:100A90000023FB600023BB604D4B5B6803F00C033D
:100AA0007B617B69042B07D0082B09D0002B34D144
:100AB0007B68484A1A6034E07B68464A1A6030E036
:100AC000434B5B6803F470133B61414B5B6803F479
:100AD0008033FB603B699B0C02333B61FB68002B5E
:100AE00006D13B693C4A02FB03F27B681A6013E0C3
:100AF000374B5B6803F40033002B06D03B69364A62
:100B000002FB03F27B681A6006E03B69314A02FB94
:100B100003F27B681A6004E003E07B682D4A1A60E8
:100B200000BF2B4B5B6803F0F0037B617B691B0903
:100B30007B612A4A7B6913441B78DBB2BB607B680C
:100B40001A68BB68DA407B685A60214B5B6803F423
:100B5000E0637B617B691B0A7B61204A7B691344EC
:100B60001B78DBB2BB607B685A68BB68DA407B6885
:100B70009A60174B5B6803F460537B617B69DB0A07
:100B80007B61164A7B6913441B78DBB2BB607B68D0
:100B90005A68BB68DA407B68DA600D4B5B6803F427
:100BA00040437B617B699B0B7B610D4A7B691344EE
:100BB0001B78DBB2BB607B68DA68BB68B2FBF3F220
:100BC0007B681A611C37BD465DF8047B704700BF27
:100BD0000010024000127A0000093D0014000020BD
:100BE0002400002080B483B000AF78600B46FB7017
:100BF000FB78002B06D00949084B9A697B681343A0
:100C00008B6106E00549054B9A697B68DB4313401D
:100C10008B610C37BD465DF8047B704700100240C5
:100C200080B58CB000AF786039600023FB62002390
:100C3000BB6200237B6200233B620023FB617B6875
:100C4000FB617B681B8A9BB2FB62FA6A4CF6FF73FE
:100C50001340FB623B68DB881A46FB6A1343FB6266
:100C6000FB6A9AB27B681A827B689B899BB2FB62A3
:100C7000FA6A4EF6F3131340FB623B689A883B68AE
:100C80001B8913439AB23B685B8913439BB21A4694
:100C9000FB6A1343FB62FB6A9AB27B689A817B68AA
:100CA0009B8A9BB2FB62FA6A4FF6FF431340FB62DA
:100CB0003B689B891A46FB6A1343FB62FB6A9AB244
:100CC0007B689A8207F108031846FFF7D9FEFB6993
:100CD0002E4A934202D17B69BB6201E03B69BB6251
:100CE0007B689B899BB29BB21BB2002B0CDABA6A61
:100CF00013469B0013449A001A443B681B685B0030
:100D0000B2FBF3F37B620BE0BA6A13469B00134419
:100D10009A001A443B681B689B00B2FBF3F37B62AA
:100D20007B6A1B4AA2FB03235B091B01FB62FB6A74
:100D30001B09642202FB03F37A6AD31A3B627B68C5
:100D40009B899BB29BB21BB2002B0CDA3B6ADB0087
:100D500032330F4AA2FB03235B0903F00703FA6A4D
:100D60001343FB620BE03B6A1B013233084AA2FBD0
:100D700003235B0903F00F03FA6A1343FB62FB6A68
:100D80009AB27B681A813037BD4680BD0038014079
:100D90001F85EB5180B483B000AF78600B46FB70C9
:100DA000FB78002B08D07B689B899BB243F40053EF
:100DB0009AB27B689A8107E07B689B899BB223F497
:100DC00000539AB27B689A810C37BD465DF8047B6C
:100DD000704700BF80B483B000AF78600B467B8063
:100DE0007B88C3F308039AB27B689A800C37BD46B0
:100DF0005DF8047B704700BF80B485B000AF7860B9
:100E00000B467B800023FB737B681B889AB27B8830
:100E100013409BB2002B02D00123FB7301E000239F
:100E2000FB73FB7B18461437BD465DF8047B7047A7
:100E300080B586B000AF4FF480500121FFF7D2FE9D
:100E400038233B820123BB8100237B8100233B812C
:100E50000023BB8000237B824FF48273FB803B1D09
:100E60001848194600F058FA1648012100F098FA7F
:100E700004200121FFF7B6FEA0233B801823FB705E
:100E80000223BB703B4610481946FFF757FA402330
:100E90003B800423FB700223BB703B460A48194683
:100EA000FFF74CFA4FF480733B800423FB7002235E
:100EB000BB703B4604481946FFF740FA1837BD4659
:100EC00080BD00BF003001400008014080B582B005
:100ED00000AF0346FB71144BFA7992B29A817420E9
:100EE000FFF7B6FD00BF104B1B899BB203F0020356
:100EF000002BF8D07220FFF7ABFD00BF0A4B1B8917
:100F00009BB203F00103002BF8D06220FFF7A0FD95
:100F100000BF054B1B899BB203F08003002BF8D167
:100F20000837BD4680BD00BF0030014080B582B0AB
:100F300000AF0346FB71184BFA7992B29A815420A4
:100F4000FFF786FD00BF144B1B899BB203F0020321
:100F5000002BF8D05220FFF77BFD00BF0E4B1B8902
:100F60009BB203F00103002BF8D04220FFF770FD85
:100F70000920FFF76DFD00BF074B1B899BB203F0F3
:100F80008003002BF8D1044B9B899BB2DBB218463F
:100F90000837BD4680BD00BF0030014080B500AFBE
:100FA0000620FFF793FF80BD80B582B000AF00231D
:100FB0007B604320FFF78AFFE520FFF787FF0420CF
:100FC000FFF784FF2420FFF781FFBA20FFF77EFFA1
:100FD0003220FFF79BF80820FFF778FF0837BD465F
:100FE00080BD00BF98B500AF6420FFF78FF80020E8
:100FF000FFF79CFF03461A462C4B1A700020FFF7A0
:1010000095FF03461A462A4B1A700020FFF78EFF01
:1010100003461A46274B1A70244B1B781A46264B58
:101020001A60254B1B681B02214A12781343224A7F
:101030001360214B1B681B021E4A127813431E4A81
:1010400013601D4B1B681B021C4A13601B4B1B6863
:101050001B0A1A4A1360194B1B68184600F090FED1
:101060000246174B1B681046194600F0E1FE034686
:101070001C46144B1B68184600F086FE03462046AB
:10108000194600F089FF034618460F4900F0D0FECC
:10109000034618460D4900F07FFF03461A460C4BE5
:1010A0001A600B4B1B68184698BD00BF9C000020BF
:1010B0009D0000209E000020A0000020A400002031
:1010C0002C0000202800002000007A44FEFFFF4A88
:1010D000A800002080B582B000AF78604320FFF701
:1010E000F5FE7B68002B03D10520FFF7EFFE02E041
:1010F0005520FFF7EBFE0420FFF7E8FE2420FFF762
:10110000E5FEBA20FFF7E2FE3220FEF7FFFF0820DF
:10111000FFF7DCFE0837BD4680BD00BF00000000C1
:101120002DE9B04382B000AF78606420FEF7EEFF97
:101130000020FFF7FBFE03461A46694B1A70002099
:10114000FFF7F4FE03461A46664B1A700020FFF7BD
:10115000EDFE03461A46644B1A70614B1B781A4623
:10116000624B1A60614B1B681B025E4A1278134384
:101170005E4A13605D4B1B681B025B4A1278134387
:101180005A4A1360594B1B681B02594A1360584B4B
:101190001B681B0A564A1360554B1B68184600F023
:1011A000EFFD0246534B1B681046194600F040FE07
:1011B00003461C46504B1B68184600F0E5FD0346ED
:1011C0002046194600F0E8FE034618464B4900F059
:1011D0002FFE034618464A4900F0DEFE03461A4633
:1011E000484B1A60474B1B681846796800F016FD9B
:1011F00003461A46434B1A60424B1A68424B1B681F
:101200001046194600F0C8FE03461A463F4B1A60C6
:101210003E4B1B681846394900F0BEFE034618468F
:101220004FF07E5100F0FAFC03461A46374B1A6025
:10123000364B1B68184600F037FA04460D46334B10
:101240001B68184600F030FA804689462F4B1B6811
:10125000184600F029FA02460B46104619461AA312
:10126000D3E9002300F074FA02460B4610461946F3
:1012700017A3D3E9002300F0B9F802460B46404615
:10128000494600F065FA02460B461046194612A37D
:10129000D3E9002300F0AAF802460B46204629466F
:1012A00000F056FA02460B461046194600F062FC62
:1012B0000246174B1A60164B1B6818460837BD4686
:1012C000BDE8B083AFF300807F6ABC749318EC3F35
:1012D0003333333333332340A089B0E1E9FB6F402C
:1012E0009C0000209D0000209E000020A000002007
:1012F000A40000202C0000202800002000007A44D8
:10130000FEFFFF4A900000203000002094000020E3
:1013100098000020AFF3008080B485B000AF786003
:1013200039600023FB817B681B88FB81FB8903F408
:101330004153FB813B681A883B685B8813439AB230
:101340003B689B8813439AB23B68DB8813439AB28D
:101350003B681B8913439AB23B685B8913439AB27B
:101360003B689B8913439AB23B68DB8913439AB26B
:10137000FB891343FB817B68FA891A807B689B8B0E
:101380009BB223F400639AB27B689A833B681A8A03
:101390007B681A821437BD465DF8047B704700BF36
:1013A00080B483B000AF78600B46FB70FB78002BF5
:1013B00008D07B681B889BB243F040039AB27B68DD
:1013C0001A8007E07B681B889BB223F040039AB227
:1013D0007B681A800C37BD465DF8047B704700BF00
:1013E00081F0004102E000BF83F0004330B54FEAD6
:1013F00041044FEA430594EA050F08BF90EA020F43
:101400001FBF54EA000C55EA020C7FEA645C7FEAD5
:10141000655C00F0E2804FEA5454D4EB5555B8BFF8
:101420006D420CDD2C4480EA020281EA030382EA69
:10143000000083EA010180EA020281EA0303362DFB
:1014400088BF30BD11F0004F4FEA01314FF4801CCE
:101450004CEA113102D0404261EB410113F0004FE0
:101460004FEA03334CEA133302D0524263EB430397
:1014700094EA050F00F0A780A4F10104D5F1200E35
:101480000DDB02FA0EFC22FA05F2801841F1000190
:1014900003FA0EF2801843FA05F359410EE0A5F164
:1014A00020050EF1200E012A03FA0EFC28BF4CF095
:1014B000020C43FA05F3C01851EBE37101F000454B
:1014C00007D54FF0000EDCF1000C7EEB00006EEB58
:1014D0000101B1F5801F1BD3B1F5001F0CD34908E2
:1014E0005FEA30004FEA3C0C04F101044FEA445239
:1014F00012F5800F80F09A80BCF1004F08BF5FEAC0
:10150000500C50F1000041EB045141EA050130BD9F
:101510005FEA4C0C404141EB010111F4801FA4F142
:101520000104E9D191F0000F04BF01460020B1FA97
:1015300081F308BF2033A3F10B03B3F120020CDACF
:101540000C3208DD02F1140CC2F10C0201FA0CF0AD
:1015500021FA02F10CE002F11402D8BFC2F1200C12
:1015600001FA02F120FA0CFCDCBF41EA0C019040C8
:10157000E41AA2BF01EB0451294330BD6FEA040411
:101580001F3C1CDA0C340EDC04F11404C4F12002FC
:1015900020FA04F001FA02F340EA030021FA04F30E
:1015A00045EA030130BDC4F10C04C4F1200220FA65
:1015B00002F001FA04F340EA0300294630BD21FAA3
:1015C00004F0294630BD94F0000F83F4801306BF69
:1015D00081F480110134013D4EE77FEA645C18BF5D
:1015E0007FEA655C29D094EA050F08BF90EA020FF4
:1015F00005D054EA000C04BF1946104630BD91EAEC
:10160000030F1EBF0021002030BD5FEA545C05D1EE
:101610004000494128BF41F0004130BD14F580042D
:101620003CBF01F5801130BD01F0004545F0FE41A1
:1016300041F470014FF0000030BD7FEA645C1ABFD6
:10164000194610467FEA655C1CBF0B46024650EA0D
:10165000013406BF52EA033591EA030F41F4002139
:1016600030BD00BF90F0000F04BF0021704730B5BF
:101670004FF4806404F132044FF000054FF0000194
:1016800050E700BF90F0000F04BF0021704730B555
:101690004FF4806404F1320410F0004548BF40422A
:1016A0004FF000013EE700BF42004FEAE2014FEA7F
:1016B00031014FEA02701FBF12F07F4393F07F4F5A
:1016C00081F06051704792F0000F14BF93F07F4F8C
:1016D000704730B54FF4607401F0004521F00041CF
:1016E00020E700BF50EA010208BF704730B54FF055
:1016F00000050AE050EA010208BF704730B511F05A
:10170000004502D5404261EB41014FF4806404F191
:1017100032045FEA915C3FF4DCAE4FF003025FEA13
:10172000DC0C18BF03325FEADC0C18BF033202EB9B
:10173000DC02C2F1200300FA03FC20FA02F001FAF5
:1017400003FE40EA0E0021FA02F11444C1E600BF94
:1017500070B54FF0FF0C4CF4E06C1CEA11541DBF47
:101760001CEA135594EA0C0F95EA0C0F00F0DEF812
:101770002C4481EA030621EA4C5123EA4C5350EAF7
:10178000013518BF52EA033541F4801143F4801348
:1017900038D0A0FB02CE4FF00005E1FB02E506F0D9
:1017A0000042E0FB03E54FF00006E1FB03569CF02E
:1017B000000F18BF4EF0010EA4F1FF04B6F5007F34
:1017C00064F5407404D25FEA4E0E6D4146EB0606A6
:1017D00042EAC62141EA55514FEAC52040EA5E502F
:1017E0004FEACE2EB4F1FD0C88BFBCF5E06F1ED8D9
:1017F000BEF1004F08BF5FEA500E50F1000041EB10
:10180000045170BD06F0004646EA010140EA0200BC
:1018100081EA0301B4EB5C04C2BFD4EB0C0541EADE
:10182000045170BD41F480114FF0000E013C00F3F3
:10183000AB8014F1360FDEBF002001F0004170BD17
:10184000C4F10004203C35DA0C341BDC04F1140430
:10185000C4F1200500FA05F320FA04F001FA05F2BC
:1018600040EA020001F0004221F0004110EBD37089
:1018700021FA04F642EB06015EEA430E08BF20EAB5
:10188000D37070BDC4F10C04C4F1200500FA04F358
:1018900020FA05F001FA04F240EA020001F00041EA
:1018A00010EBD37041F100015EEA430E08BF20EA5D
:1018B000D37070BDC4F1200500FA05F24EEA020EA5
:1018C00020FA04F301FA05F243EA020321FA04F0D4
:1018D00001F0004121FA04F220EA020000EBD3708B
:1018E0005EEA430E08BF20EAD37070BD94F0000F8B
:1018F0000FD101F00046400041EB010111F4801FBF
:1019000008BF013CF7D041EA060195F0000F18BF6F
:10191000704703F00046520043EB030313F4801FAB
:1019200008BF013DF7D043EA0603704794EA0C0F65
:101930000CEA135518BF95EA0C0F0CD050EA41067B
:1019400018BF52EA4306D1D181EA030101F00041F8
:101950004FF0000070BD50EA410606BF1046194620
:1019600052EA430619D094EA0C0F02D150EA01362C
:1019700013D195EA0C0F05D152EA03361CBF10466D
:1019800019460AD181EA030101F0004141F0FE410C
:1019900041F470014FF0000070BD41F0FE4141F490
:1019A000780170BD70B54FF0FF0C4CF4E06C1CEA90
:1019B00011541DBF1CEA135594EA0C0F95EA0C0F45
:1019C00000F0A7F8A4EB050481EA030E52EA033500
:1019D0004FEA013100F088804FEA03334FF0805521
:1019E00045EA131343EA12634FEA022245EA11154E
:1019F00045EA10654FEA00260EF000419D4208BFFF
:101A0000964244F1FD0404F5407402D25B084FEAAB
:101A10003202B61A65EB03055B084FEA32024FF457
:101A200080104FF4002CB6EB020E75EB030E22BFB4
:101A3000B61A754640EA0C005B084FEA3202B6EB74
:101A4000020E75EB030E22BFB61A754640EA5C0023
:101A50005B084FEA3202B6EB020E75EB030E22BFB3
:101A6000B61A754640EA9C005B084FEA3202B6EBB4
:101A7000020E75EB030E22BFB61A754640EADC0073
:101A800055EA060E18D04FEA051545EA16754FEAD5
:101A900006164FEAC30343EA52734FEAC2025FEAF3
:101AA0001C1CC0D111F4801F0BD141EA00014FF082
:101AB00000004FF0004CB6E711F4801F04BF014353
:101AC0000020B4F1FD0C88BFBCF5E06F3FF6AFAE6F
:101AD000B5EB030C04BFB6EB020C5FEA500C50F1FF
:101AE000000041EB045170BD0EF0004E4EEA113182
:101AF00014EB5C04C2BFD4EB0C0541EA045170BD89
:101B000041F480114FF0000E013C90E645EA060ECC
:101B10008DE60CEA135594EA0C0F08BF95EA0C0FFA
:101B20003FF43BAF94EA0C0F0AD150EA01347FF442
:101B300034AF95EA0C0F7FF425AF104619462CE719
:101B400095EA0C0F06D152EA03353FF4FDAE10467C
:101B5000194622E750EA410618BF52EA43067FF4CD
:101B6000C5AE50EA41047FF40DAF52EA43057FF45D
:101B7000EBAE12E74FEA4102B2F1E04324BFB3F506
:101B8000001CDCF1FE5C0DD901F0004C4FEAC002F4
:101B90004CEA5070B2F1004F40EB830008BF20F0D8
:101BA0000100704711F0804F21D113F13872BCBF92
:101BB00001F00040704741F480114FEA5252C2F1E7
:101BC0001802C2F1200C10FA0CF320FA02F018BF30
:101BD00040F001004FEAC1234FEAD32303FA0CFC83
:101BE00040EA0C0023FA02F34FEA4303CCE77FEA12
:101BF000625307D150EA01331EBF4FF0FE4040F45C
:101C00004000704701F0004040F0FE4040F400000A
:101C1000704700BF80F0004002E000BF81F000414B
:101C200042001FBF5FEA410392EA030F7FEA226C82
:101C30007FEA236C6AD04FEA1262D2EB1363C1BF12
:101C4000D218414048404140B8BF5B42192B88BF81
:101C5000704710F0004F40F4000020F07F4018BFA4
:101C6000404211F0004F41F4000121F07F4118BFC4
:101C7000494292EA030F3FD0A2F1010241FA03FC6C
:101C800010EB0C00C3F1200301FA03F100F0004354
:101C900002D5494260EB4000B0F5000F13D3B0F11C
:101CA000807F06D340084FEA310102F10102FE2A8B
:101CB00051D2B1F1004F40EBC25008BF20F00100FB
:101CC00040EA03007047490040EB000010F4000FA9
:101CD000A2F10102EDD1B0FA80FCACF1080CB2EB3C
:101CE0000C0200FA0CF0AABF00EBC250524218439B
:101CF000BCBFD0401843704792F0000F81F4000140
:101D000006BF80F400000132013BB5E74FEA410312
:101D10007FEA226C18BF7FEA236C21D092EA030F7E
:101D200004D092F0000F08BF0846704790EA010FF8
:101D30001CBF0020704712F07F4F04D1400028BF25
:101D400040F00040704712F100723CBF00F5000007
:101D5000704700F0004343F0FE4040F4000070473D
:101D60007FEA226216BF08467FEA236301464202E9
:101D700006BF5FEA412390EA010F40F480007047FC
:101D80004FF0000304E000BF10F0004348BF4042A2
:101D90005FEA000C08BF704743F0964301464FF0DE
:101DA00000001CE050EA010208BF70474FF000033A
:101DB0000AE000BF50EA010208BF704711F000437B
:101DC00002D5404261EB41015FEA010C02BF84464B
:101DD0000146002043F0B64308BFA3F18053A3F5AA
:101DE0000003BCFA8CF2083AA3EBC25310DB01FAF1
:101DF00002FC634400FA02FCC2F12002BCF1004F75
:101E000020FA02F243EB020008BF20F00100704705
:101E100002F1200201FA02FCC2F1200250EA4C0059
:101E200021FA02F243EB020008BF20EADC7070479F
:101E30004FF0FF0C1CEAD0521EBF1CEAD15392EAAD
:101E40000C0F93EA0C0F6FD01A4480EA010C400289
:101E500018BF5FEA41211ED04FF0006343EA5010E3
:101E600043EA5111A0FB01310CF00040B1F5000F25
:101E70003EBF490041EAD3715B0040EA010062F1D4
:101E80007F02FD2A1DD8B3F1004F40EBC25008BFBE
:101E900020F00100704790F0000F0CF0004C08BFDC
:101EA00049024CEA502040EA51207F3AC2BFD2F1A9
:101EB000FF0340EAC250704740F400004FF00003B7
:101EC000013A5DDC12F1190FDCBF00F000407047F1
:101ED000C2F10002410021FA02F1C2F1200200FA2F
:101EE00002FC5FEA310040F1000053EA4C0308BFF6
:101EF00020EADC70704792F0000F00F0004C02BF47
:101F0000400010F4000F013AF9D040EA0C0093F0C1
:101F1000000F01F0004C02BF490011F4000F013B1B
:101F2000F9D041EA0C018FE70CEAD15392EA0C0F89
:101F300018BF93EA0C0F0AD030F0004C18BF31F0F4
:101F4000004CD8D180EA010000F00040704790F0CA
:101F5000000F17BF90F0004F084691F0000F91F06E
:101F6000004F14D092EA0C0F01D142020FD193EA34
:101F70000C0F03D14B0218BF084608D180EA0100BC
:101F800000F0004040F0FE4040F40000704740F098
:101F9000FE4040F4400070474FF0FF0C1CEAD05266
:101FA0001EBF1CEAD15392EA0C0F93EA0C0F69D0C2
:101FB000A2EB030280EA010C49024FEA402037D02D
:101FC0004FF0805343EA111143EA10130CF0004024
:101FD0008B4238BF5B0042F17D024FF4000C8B4214
:101FE00024BF5B1A40EA0C00B3EB510F24BFA3EBF4
:101FF000510340EA5C00B3EB910F24BFA3EB9103C4
:1020000040EA9C00B3EBD10F24BFA3EBD10340EA1D
:10201000DC001B0118BF5FEA1C1CE0D1FD2A3FF663
:1020200050AF8B4240EBC25008BF20F00100704718
:102030000CF0004C4CEA50207F32C2BFD2F1FF03BB
:1020400040EAC250704740F400004FF00003013AEC
:1020500037E792F0000F00F0004C02BF400010F490
:10206000000F013AF9D040EA0C0093F0000F01F0A4
:10207000004C02BF490011F4000F013BF9D041EAC6
:102080000C0195E70CEAD15392EA0C0F08D14202F9
:102090007FF47DAF93EA0C0F7FF470AF084676E7CC
:1020A00093EA0C0F04D14B023FF44CAF08466EE7A5
:1020B00030F0004C18BF31F0004CCAD130F0004273
:1020C0007FF45CAF31F000437FF43CAF5FE700BFCB
:1020D0004FF0FF3C06E000BF4FF0010C02E000BFF4
:1020E0004FF0010C4DF804CD4FEA40024FEA410396
:1020F0007FEA226C18BF7FEA236C11D001B052EA4C
:10210000530C18BF90EA010F58BFB2EB030088BF11
:10211000C81738BF6FEAE17018BF40F00100704780
:102120007FEA226C02D15FEA402C05D17FEA236C62
:10213000E4D15FEA412CE1D05DF8040B704700BFA9
:10214000844608466146FFE70FB5FFF7C9FF002840
:1021500048BF10F1000F0FBD4DF808EDFFF7F4FF79
:102160000CBF012000205DF808FB00BF4DF808ED12
:10217000FFF7EAFF34BF012000205DF808FB00BF35
:102180004DF808EDFFF7E0FF94BF012000205DF857
:1021900008FB00BF4DF808EDFFF7D2FF94BF012008
:1021A00000205DF808FB00BF4DF808EDFFF7C8FF01
:1021B00034BF012000205DF808FB00BF42000ED2B2
:1021C000B2F1FE4F0BD34FF09E03B3EB126209D472
:1021D0004FEA002343F0004323FA02F070474FF028
:1021E0000000704712F1610F01D1420202D14FF09D
:0C21F000FF3070474FF00000704700BF48
:1021FC0000A24A04000000000000000001020304D9
:10220C000607080900000000010203040102030490
:10221C000607080902040608040000006F120340B8
:04222C000000803EF0
:0400000508000000EF
:00000001FF
